:100000000C9463000C948B000C948B000C948B006C
:100010000C948B000C948B000C948B000C948B0034
:100020000C948B000C948B000C948B000C948B0024
:100030000C948B000C948B000C948B000C948B0014
:100040000C9411030C948B000C94DE040C942C057E
:100050000C948B000C948B000C948B000C948B00F4
:100060000C948B000C948B000000000024002700EF
:100070002A0000000000250028002B0000000000DE
:1000800023002600290004040404040404040202DA
:100090000202020203030303030301020408102007
:1000A0004080010204081020010204081020000012
:1000B0000007000201000003040600000000000029
:1000C00000008D00980611241FBECFEFD8E0DEBFE0
:1000D000CDBF11E0A0E0B1E0E0EEFEE002C005908F
:1000E0000D92AC34B107D9F712E0ACE4B1E001C035
:1000F0001D92A431B107E1F710E0C6ECD0E004C0D6
:100100002297FE010E946A07C23CD107C9F70E94EC
:10011000EE060C946E070C940000CF92EF920F93B2
:100120008CE491E06DE04BE029E008E057E0E52E3B
:1001300036E0C32E0E94D8020F91EF90CF90089521
:100140000F931F930CE411E0C80164E144E020E048
:100150000E94220282EF91E040E855E260E070E008
:100160000E9467058091230162E00E94F70380915D
:10017000250162E00E94F7038091270162E00E945E
:10018000F7038091290162E00E94F703C80162E051
:1001900040E00E94EB01C80160E071E00E9443076B
:1001A000C80164E041E00E94EB01C8016AE071E02F
:1001B0000E944307C8016BE041E00E94EB01C801C7
:1001C00061E171E00E944307C80162E042E00E94E1
:1001D000EB01C80169E171E00E9443071F910F9193
:1001E0000895809123010E948A04892B21F482EFD3
:1001F00091E064E11DC0809125010E948A04892B51
:1002000021F482EF91E06EE113C0809127010E94FA
:100210008A04892B21F482EF91E068E209C0809181
:1002200029010E948A04892B29F482EF91E062E37C
:100230000E9458066AEF70E080E090E00E94590347
:1002400008950F931F938C01FC01868160E00E944A
:10025000360481E090E00E94B203F801868161E0FB
:100260000E94360481E090E00E94B203F80186818A
:1002700060E00E94360484E690E00E94B2031F9181
:100280000F910895CF92DF92EF92FF920F931F93F9
:10029000CF93DF93D82EC92E282F392FC9018C0177
:1002A000C0E0D0E0E62EFF24F801878161E00E94E3
:1002B000F703B7010C2E02C0759567950A94E2F713
:1002C0006170F80187810E94360421960F5F1F4FED
:1002D000C830D10549F78D2D9C2D0E942101DF9159
:1002E000CF911F910F91FF90EF90DF90CF900895E5
:1002F000CF92DF92EF92FF920F931F93CF93DF93F2
:10030000D82EC92E282F392FC9018C01C0E0D0E08A
:10031000E62EFF24F801878161E00E94F703B70110
:100320000C2E02C0759567950A94E2F76170F8018A
:1003300087810E94360421960F5F1F4FC430D1057C
:1003400049F78D2D9C2D0E942101DF91CF911F91A6
:100350000F91FF90EF90DF90CF9008951F93CF9370
:10036000DF93EC01162F8C81642F0E9436048D815F
:100370008F3F19F060E00E9436048F8584FF05C02E
:10038000CE01612F0E9442010EC0612F70E084E017
:10039000759567958A95E1F7CE010E947801CE01A7
:1003A000612F0E947801DF91CF911F91089541E064
:1003B0000E94AE0181E090E0089540E00E94AE010D
:1003C0000895FC016089862F8460808B6C60CF016A
:1003D0000E94DD010895DF93CF93CDB7DEB7289754
:1003E0000FB6F894DEBF0FBECDBF9C01FE01319663
:1003F000A3E3B1E088E00D9001928150E1F7F901AB
:100400008389481710F0482F4150E42FF0E0EE0F99
:10041000FF1FEC0FFD1F8181680F6068C9010E94FA
:10042000DD0128960FB6F894DEBF0FBECDBFCF9189
:10043000DF91089561E00E94DD0180ED97E00E9468
:10044000B2030895CF93DF93EC01423018F08F850B
:1004500088608F874B8B1C8A222329F0413019F446
:100460008F8584608F8780E593EC0E94B2038C8136
:1004700060E00E9436048E8160E00E9436048D8127
:100480008F3F19F060E00E9436046F8564FD1DC047
:10049000CE0163E00E94780184E991E10E94B203F9
:1004A000CE0163E00E94780184E991E10E94B203E9
:1004B000CE0163E00E94780186E990E00E94B203D9
:1004C000CE0162E00E94780116C06062CE010E94F7
:1004D000DD0184E991E10E94B2036F856062CE0183
:1004E0000E94DD0186E990E00E94B2036F856062A0
:1004F000CE010E94DD016F856062CE010E94DD01A8
:1005000084E0888BCE010E94E101CE010E941A0294
:1005100082E0898BCE0166E00E94DD01DF91CF9100
:1005200008956F927F928F92AF92CF92EF920F9336
:100530001F93DF93CF93CDB7DEB73C01162F842FE7
:10054000F301448325830683E782C086A1868286E1
:100550009D8593879E8594879F85958798899687A3
:1005600061E00E94F703F30185818F3F19F061E09C
:100570000E94F703F301868161E00E94F7031123D3
:1005800019F0F301178603C080E1F3018787C301E7
:1005900060E141E020E00E942202CF91DF911F91B3
:1005A0000F91EF90CF90AF908F907F906F900895C4
:1005B0008F92AF92CF92EF920F931F93CF93DF93CF
:1005C000DC01362F542F722F102FAE2C8C2C13964B
:1005D0001C921E9212978FE291E011969C938E933B
:1005E00000D000D0EDB7FEB73196CDB7DEB7198297
:1005F000118212821382CD0161E0432F2FEF052F6C
:10060000E72EC12E0E9491020F900F900F900F9035
:10061000DF91CF911F910F91EF90CF90AF908F907E
:1006200008951F920F920FB60F9211242F933F93AC
:100630008F939F93AF93BF938091650190916601D3
:10064000A0916701B0916801309169010196A11DE7
:10065000B11D232F2D5F2D3720F02D570196A11DA1
:10066000B11D209369018093650190936601A09369
:100670006701B09368018091610190916201A0913E
:100680006301B09164010196A11DB11D80936101C8
:1006900090936201A0936301B0936401BF91AF9105
:1006A0009F918F913F912F910F900FBE0F901F90B0
:1006B00018959B01AC017FB7F894809161019091EE
:1006C0006201A0916301B091640166B5A89B05C069
:1006D0006F3F19F00196A11DB11D7FBFBA2FA92F41
:1006E000982F8827860F911DA11DB11D62E0880FEC
:1006F000991FAA1FBB1F6A95D1F7BC012DC0FFB778
:10070000F8948091610190916201A0916301B09190
:100710006401E6B5A89B05C0EF3F19F00196A11D45
:10072000B11DFFBFBA2FA92F982F88278E0F911DBB
:10073000A11DB11DE2E0880F991FAA1FBB1FEA95FA
:10074000D1F7861B970B885E9340C8F2215030404A
:100750004040504068517C4F2115310541055105FD
:1007600071F60895019739F0880F991F880F991F26
:1007700002970197F1F70895789484B5826084BD5B
:1007800084B5816084BD85B5826085BD85B5816095
:1007900085BDEEE6F0E0808181608083E1E8F0E0F5
:1007A0001082808182608083808181608083E0E824
:1007B000F0E0808181608083E1EBF0E08081846003
:1007C0008083E0EBF0E0808181608083EAE7F0E005
:1007D0008081846080838081826080838081816069
:1007E00080838081806880831092C1000895CF93B8
:1007F000DF93482F50E0CA0186569F4FFC01349189
:100800004A575F4FFA018491882369F190E0880F7D
:10081000991FFC01E859FF4FA591B491FC01EE58D6
:10082000FF4FC591D491662351F42FB7F8948C9162
:10083000932F909589238C93888189230BC06230F4
:1008400061F42FB7F8948C91932F909589238C9312
:100850008881832B88832FBF06C09FB7F8948C9123
:10086000832B8C939FBFDF91CF910895482F50E049
:10087000CA0182559F4FFC012491CA0186569F4FA1
:10088000FC0194914A575F4FFA013491332309F4E4
:1008900040C0222351F1233071F0243028F421305C
:1008A000A1F0223011F514C02630B1F02730C1F08C
:1008B0002430D9F404C0809180008F7703C08091E8
:1008C00080008F7D8093800010C084B58F7702C038
:1008D00084B58F7D84BD09C08091B0008F7703C03F
:1008E0008091B0008F7D8093B000E32FF0E0EE0F99
:1008F000FF1FEE58FF4FA591B4912FB7F8946623D0
:1009000021F48C919095892302C08C91892B8C9332
:100910002FBF0895682F70E0CB0182559F4FFC01D7
:100920002491CB0186569F4FFC0144916A577F4F1B
:10093000FB019491992319F420E030E03CC022237C
:1009400051F1233071F0243028F42130A1F022300D
:1009500011F514C02630B1F02730C1F02430D9F49D
:1009600004C0809180008F7703C0809180008F7DCC
:100970008093800010C084B58F7702C084B58F7DCE
:1009800084BD09C08091B0008F7703C08091B00012
:100990008F7D8093B000892F90E0880F991F845835
:1009A0009F4FFC01A591B4918C9120E030E084230D
:1009B00011F021E030E0C901089508951F920F92CF
:1009C0000FB60F9211242F933F934F938F939F93C2
:1009D000EF93FF938091C00082FD1DC04091C6003F
:1009E0002091AA013091AB012F5F3F4F2F733070E0
:1009F0008091AC019091AD012817390771F0E09119
:100A0000AA01F091AB01E659FE4F40833093AB0150
:100A10002093AA0102C08091C600FF91EF919F919F
:100A20008F914F913F912F910F900FBE0F901F907C
:100A30001895E091FE01F091FF01E05CFF4F81917C
:100A4000919120813181821B930B8F739070892B40
:100A500011F00E94DD0408951F920F920FB60F92BD
:100A600011242F933F938F939F93EF93FF932091A4
:100A7000EE013091EF018091F0019091F101281782
:100A8000390731F48091C1008F7D8093C10014C07B
:100A9000E091F001F091F101E255FE4F208180914B
:100AA000F0019091F10101968F7390709093F10194
:100AB0008093F0012093C600FF91EF919F918F9159
:100AC0003F912F910F900FBE0F901F901895AF92EE
:100AD000BF92DF92EF92FF920F931F93CF93DF931A
:100AE000EC017A018B01DD24403081EE580780E073
:100AF000680780E0780711F0DD24D39491E0A92EF7
:100B0000B12CEC89FD89DD2069F0C50108A002C087
:100B1000880F991F0A94E2F7808360E079E08DE303
:100B200090E005C0108260E874E88EE190E0A801D2
:100B300097010E9446072150304040405040569552
:100B400047953795279580E12030380720F0DD2044
:100B500011F0DD24D6CFE889F9893083EA89FB8951
:100B6000208319A2EE89FF89408121E030E0C9018C
:100B70000C8C02C0880F991F0A94E2F7482B40831F
:100B8000EE89FF894081C9010D8C02C0880F991F31
:100B90000A94E2F7482B4083EE89FF894081C9011E
:100BA0000E8C02C0880F991F0A94E2F7482B4083ED
:100BB000EE89FF8980810F8C02C0220F331F0A94B7
:100BC000E2F7209528232083DF91CF911F910F9189
:100BD000FF90EF90DF90BF90AF900895DC011C96DE
:100BE000ED91FC911D97E05CFF4F21913191808147
:100BF0009181281B390B2F733070C9010895DC01D6
:100C00001C96ED91FC911D97E05CFF4F2081318196
:100C1000E054F040DF01AE5BBF4F8D919C91119786
:100C20002817390719F42FEF3FEF07C08D919C91DA
:100C3000E80FF91F8081282F30E0C9010895DC01F9
:100C40001C96ED91FC911D97E05CFF4F2081318156
:100C5000E054F040DF01AE5BBF4F8D919C91119746
:100C60002817390719F42FEF3FEF10C08D919C9191
:100C70001197E80FF91F20818D919C911197019692
:100C80008F73907011969C938E9330E0C9010895F4
:100C9000DC0191968C919197882339F05496ED91CF
:100CA000FC915597808186FFF9CF91961C9208950B
:100CB000CF93DF93EC01EE85FF85E05CFF4F208151
:100CC0003181E054F0402F5F3F4F2F733070DF01D0
:100CD000AE5BBF4F8D919C91119728173907D1F3C7
:100CE000E05CFF4F80819181E054F040E80FF91FF4
:100CF0006083EE85FF85E05CFF4F31832083EE89C2
:100D0000FF89208181E090E00F8C02C0880F991F3D
:100D10000A94E2F7282B208381E089A3EC89FD89DE
:100D200080818064808381E090E0DF91CF9108959D
:100D30001092F5011092F40188EE93E0A0E0B0E08B
:100D40008093F6019093F701A093F801B093F90115
:100D50008FE391E09093F3018093F2018AE691E0B2
:100D60009093FF018093FE018EEA91E0909301023F
:100D70008093000285EC90E090930302809302023E
:100D800084EC90E0909305028093040280EC90E064
:100D9000909307028093060281EC90E09093090201
:100DA0008093080282EC90E090930B0280930A02F9
:100DB00086EC90E090930D0280930C0284E0809387
:100DC0000E0283E080930F0287E08093100285E09B
:100DD0008093110281E0809312020895CF93DF93F4
:100DE0000E94BC030E94A000C9E1D5E00E94F1006E
:100DF0002097E1F30E941905F9CFCF92DF92EF928D
:100E0000FF920F931F93CF93DF937C016B018A01B5
:100E1000C0E0D0E00FC0D6016D916D01D701ED911A
:100E2000FC910190F081E02DC7010995C80FD91FF1
:100E3000015010400115110571F7CE01DF91CF91DE
:100E40001F910F91FF90EF90DF90CF900895CF9377
:100E5000DF93EC016115710519F420E030E00FC05B
:100E6000DB010D900020E9F71197A61BB70BE88175
:100E7000F9810280F381E02DAD0109959C01C90142
:100E8000DF91CF9108950E9427070895A1E21A2EBD
:100E9000AA1BBB1BFD010DC0AA1FBB1FEE1FFF1F1E
:100EA000A217B307E407F50720F0A21BB30BE40B6E
:100EB000F50B661F771F881F991F1A9469F76095B5
:100EC0007095809590959B01AC01BD01CF0108956F
:100ED000EE0FFF1F0590F491E02D0994F894FFCFD9
:100EE000464F5257415244205E004C454654203CE8
:100EF000003E2052494748540052455645525345FA
:100F0000207600020003000400050000000000D766
:100F100001FD0600004000140054000000000058CD
:0C0F200006FD06EE051F06FF0548060052
:00000001FF
