:100000000C9463000C948B000C948B000C948B006C
:100010000C948B000C948B000C948B000C948B0034
:100020000C948B000C948B000C948B000C948B0024
:100030000C948B000C948B000C948B000C948B0014
:100040000C948E030C948B000C9408050C945605AC
:100050000C948B000C948B000C948B000C948B00F4
:100060000C948B000C948B000000000024002700EF
:100070002A0000000000250028002B0000000000DE
:1000800023002600290004040404040404040202DA
:100090000202020203030303030301020408102007
:1000A0004080010204081020010204081020000012
:1000B0000007000201000003040600000000000029
:1000C00000008D00C20611241FBECFEFD8E0DEBFB6
:1000D000CDBF11E0A0E0B1E0EAE9FFE002C0059089
:1000E0000D92A63BB107D9F712E0A6EBB1E001C033
:1000F0001D92AE37B107E1F710E0C6ECD0E004C0C6
:100100002297FE010E94C707C23CD107C9F70E948F
:1001100018070C94CB070C940000CF92EF920F932A
:1001200086EB91E06DE04BE025E004E053E0E52E46
:1001300032E0C32E0E9455030F91EF90CF900895A7
:100140008CE592E060E071E00E948D078CE592E022
:100150000E9449068431910519F58CE592E06CE026
:1001600071E00E94900780918F0160E00E94B304CB
:1001700080918D0161E00E94B3048091930160E061
:100180000E94B3048091910161E00E94B30486EB68
:1001900091E00E94970286EB91E06BE171E093C0E1
:1001A0008E31910519F58CE592E068E271E00E94CC
:1001B000900780918F0161E00E94B30480918D01CE
:1001C00060E00E94B3048091930160E00E94B30458
:1001D0008091910161E00E94B30486EB91E00E945E
:1001E000970286EB91E065E371E06DC0883291057E
:1001F00019F58CE592E060E471E00E94900780912F
:100200008F0161E00E94B30480918D0160E00E9443
:10021000B3048091930161E00E94B3048091910145
:1002200060E00E94B30486EB91E00E94970286EBA7
:1002300091E06FE471E047C0C29719F58CE592E058
:1002400067E571E00E94900780918F0160E00E9455
:10025000B30480918D0161E00E94B3048091930109
:1002600061E00E94B3048091910160E00E94B304B8
:1002700086EB91E00E94970286EB91E063E671E0E5
:1002800022C08CE592E06DE671E00E9490078091BB
:100290008F0160E00E94B30480918D0160E00E94B4
:1002A000B3048091930160E00E94B30480919101B6
:1002B00060E00E94B30486EB91E00E94970286EB17
:1002C00091E066E871E00E948D078CE592E00E9463
:1002D00051076AEF70E080E090E00E94D603089535
:1002E0000F931F938CE592E040E855E260E070E0E8
:1002F0000E94910506EB11E0C80160E142E020E0B8
:100300000E949F02C80160E040E00E946802809164
:10031000930161E00E9474048091910161E00E9468
:10032000740480918F0161E00E94740480918D01BA
:1003300061E00E9474041F910F9108950F931F9321
:100340008C01FC01868160E00E94B30481E090E0B2
:100350000E942F04F801868161E00E94B30481E0CD
:1003600090E00E942F04F801868160E00E94B304AF
:1003700084E690E00E942F041F910F910895CF9280
:10038000DF92EF92FF920F931F93CF93DF93D82EBC
:10039000C92E282F392FC9018C01C0E0D0E0E62EEC
:1003A000FF24F801878161E00E947404B7010C2EDC
:1003B00002C0759567950A94E2F76170F80187812C
:1003C0000E94B30421960F5F1F4FC830D10549F733
:1003D0008D2D9C2D0E949E01DF91CF911F910F9139
:1003E000FF90EF90DF90CF900895CF92DF92EF9241
:1003F000FF920F931F93CF93DF93D82EC92E282FF0
:10040000392FC9018C01C0E0D0E0E62EFF24F801AD
:10041000878161E00E947404B7010C2E02C07595BB
:1004200067950A94E2F76170F80187810E94B3042E
:1004300021960F5F1F4FC430D10549F78D2D9C2D9C
:100440000E949E01DF91CF911F910F91FF90EF903D
:10045000DF90CF9008951F93CF93DF93EC01162F79
:100460008C81642F0E94B3048D818F3F19F060E06E
:100470000E94B3048F8584FF05C0CE01612F0E94C6
:10048000BF010EC0612F70E084E0759567958A9575
:10049000E1F7CE010E94F501CE01612F0E94F50126
:1004A000DF91CF911F91089541E00E942B0281E0DE
:1004B00090E0089540E00E942B020895FC016089BD
:1004C000862F8460808B6C60CF010E945A02089551
:1004D000DF93CF93CDB7DEB728970FB6F894DEBF82
:1004E0000FBECDBF9C01FE013196ADE9B1E088E0C1
:1004F0000D9001928150E1F7F9018389481710F0BE
:10050000482F4150E42FF0E0EE0FFF1FEC0FFD1FCE
:100510008181680F6068C9010E945A0228960FB64F
:10052000F894DEBF0FBECDBFCF91DF91089561E09B
:100530000E945A0280ED97E00E942F040895CF9305
:10054000DF93EC01423018F08F8588608F874B8BEA
:100550001C8A222329F0413019F48F8584608F870B
:1005600080E593EC0E942F048C8160E00E94B3042C
:100570008E8160E00E94B3048D818F3F19F060E0AE
:100580000E94B3046F8564FD1DC0CE0163E00E942C
:10059000F50184E991E10E942F04CE0163E00E94FD
:1005A000F50184E991E10E942F04CE0163E00E94ED
:1005B000F50186E990E00E942F04CE0162E00E94DE
:1005C000F50116C06062CE010E945A0284E991E1F1
:1005D0000E942F046F856062CE010E945A0286E954
:1005E00090E00E942F046F856062CE010E945A0243
:1005F0006F856062CE010E945A0284E0888BCE0132
:100600000E945E02CE010E94970282E0898BCE0199
:1006100066E00E945A02DF91CF9108956F927F9217
:100620008F92AF92CF92EF920F931F93DF93CF935E
:10063000CDB7DEB73C01162F842FF3014483258309
:100640000683E782C086A18682869D8593879E85E4
:1006500094879F8595879889968761E00E947404A6
:10066000F30185818F3F19F061E00E947404F3016A
:10067000868161E00E947404112319F0F30117864A
:1006800003C080E1F3018787C30160E141E020E01E
:100690000E949F02CF91DF911F910F91EF90CF9019
:1006A000AF908F907F906F9008958F92AF92CF927E
:1006B000EF920F931F93CF93DF93DC01362F542FCC
:1006C000722F102FAE2C8C2C13961C921E92129708
:1006D00089E991E011969C938E9300D000D0EDB7FC
:1006E000FEB73196CDB7DEB719821182128213821E
:1006F000CD0161E0432F2FEF052FE72EC12E0E9481
:100700000E030F900F900F900F90DF91CF911F91DC
:100710000F91EF90CF90AF908F9008951F920F920E
:100720000FB60F9211242F933F938F939F93AF9304
:10073000BF938091CF019091D001A091D101B09150
:10074000D2013091D3010196A11DB11D232F2D5F40
:100750002D3720F02D570196A11DB11D2093D301F7
:100760008093CF019093D001A093D101B093D20197
:100770008091CB019091CC01A091CD01B091CE019F
:100780000196A11DB11D8093CB019093CC01A09344
:10079000CD01B093CE01BF91AF919F918F913F91C9
:1007A0002F910F900FBE0F901F9018959B01AC01D9
:1007B0007FB7F8948091CB019091CC01A091CD01AD
:1007C000B091CE0166B5A89B05C06F3F19F00196A8
:1007D000A11DB11D7FBFBA2FA92F982F8827860F83
:1007E000911DA11DB11D62E0880F991FAA1FBB1F9B
:1007F0006A95D1F7BC012DC0FFB7F8948091CB0169
:100800009091CC01A091CD01B091CE01E6B5A89B0D
:1008100005C0EF3F19F00196A11DB11DFFBFBA2F12
:10082000A92F982F88278E0F911DA11DB11DE2E0E1
:10083000880F991FAA1FBB1FEA95D1F7861B970B3C
:10084000885E9340C8F2215030404040504068518B
:100850007C4F211531054105510571F60895019729
:1008600039F0880F991F880F991F02970197F1F7A8
:100870000895789484B5826084BD84B5816084BD18
:1008800085B5826085BD85B5816085BDEEE6F0E009
:10089000808181608083E1E8F0E010828081826065
:1008A0008083808181608083E0E8F0E080818160E6
:1008B0008083E1EBF0E0808184608083E0EBF0E016
:1008C000808181608083EAE7F0E0808184608083BA
:1008D0008081826080838081816080838081806864
:1008E00080831092C1000895CF93DF93482F50E08A
:1008F000CA0186569F4FFC0134914A575F4FFA0157
:100900008491882369F190E0880F991FFC01E859D0
:10091000FF4FA591B491FC01EE58FF4FC591D491C2
:10092000662351F42FB7F8948C91932F90958923D7
:100930008C93888189230BC0623061F42FB7F894BF
:100940008C91932F909589238C938881832B888316
:100950002FBF06C09FB7F8948C91832B8C939FBFB9
:10096000DF91CF910895482F50E0CA0182559F4FE3
:10097000FC012491CA0186569F4FFC0194914A576D
:100980005F4FFA013491332309F440C0222351F11F
:10099000233071F0243028F42130A1F0223011F5F9
:1009A00014C02630B1F02730C1F02430D9F404C08F
:1009B000809180008F7703C0809180008F7D80932D
:1009C000800010C084B58F7702C084B58F7D84BD50
:1009D00009C08091B0008F7703C08091B0008F7DF7
:1009E0008093B000E32FF0E0EE0FFF1FEE58FF4FB3
:1009F000A591B4912FB7F894662321F48C9190952A
:100A0000892302C08C91892B8C932FBF0895089560
:100A10001F920F920FB60F9211242F933F934F9373
:100A20008F939F93EF93FF938091C00082FD1DC031
:100A30004091C60020911402309115022F5F3F4F64
:100A40002F73307080911602909117022817390782
:100A500071F0E0911402F0911502EC52FE4F4083C8
:100A6000309315022093140202C08091C600FF91BA
:100A7000EF919F918F914F913F912F910F900FBECA
:100A80000F901F901895E0916802F0916902E05C68
:100A9000FF4F8191919120813181821B930B8F7344
:100AA0009070892B11F00E94070508951F920F92F4
:100AB0000FB60F9211242F933F938F939F93EF9331
:100AC000FF93209158023091590280915A029091DF
:100AD0005B022817390731F48091C1008F7D809324
:100AE000C10014C0E0915A02F0915B02E85EFD4F34
:100AF000208180915A0290915B0201968F739070D1
:100B000090935B0280935A022093C600FF91EF916D
:100B10009F918F913F912F910F900FBE0F901F903B
:100B20001895AF92BF92DF92EF92FF920F931F93AF
:100B3000CF93DF93EC017A018B01DD24403081EE0D
:100B4000580780E0680780E0780711F0DD24D3942F
:100B500091E0A92EB12CEC89FD89DD2069F0C50159
:100B600008A002C0880F991F0A94E2F7808360E012
:100B700079E08DE390E005C0108260E874E88EE1D2
:100B800090E0A80197010E94A30721503040404007
:100B90005040569547953795279580E12030380786
:100BA00020F0DD2011F0DD24D6CFE889F9893083EB
:100BB000EA89FB89208319A2EE89FF89408121E01F
:100BC00030E0C9010C8C02C0880F991F0A94E2F72B
:100BD000482B4083EE89FF894081C9010D8C02C0FA
:100BE000880F991F0A94E2F7482B4083EE89FF890A
:100BF0004081C9010E8C02C0880F991F0A94E2F748
:100C0000482B4083EE89FF8980810F8C02C0220F20
:100C1000331F0A94E2F7209528232083DF91CF9198
:100C20001F910F91FF90EF90DF90BF90AF900895CC
:100C3000DC011C96ED91FC911D97E05CFF4F21912A
:100C4000319180819181281B390B2F733070C9013C
:100C50000895DC011C96ED91FC911D97E05CFF4F1F
:100C600020813181E054F040DF01AE5BBF4F8D91B8
:100C70009C9111972817390719F42FEF3FEF07C000
:100C80008D919C91E80FF91F8081282F30E0C901D8
:100C90000895DC011C96ED91FC911D97E05CFF4FDF
:100CA00020813181E054F040DF01AE5BBF4F8D9178
:100CB0009C9111972817390719F42FEF3FEF10C0B7
:100CC0008D919C911197E80FF91F20818D919C9136
:100CD000119701968F73907011969C938E9330E0CC
:100CE000C9010895DC0191968C919197882339F080
:100CF0005496ED91FC915597808186FFF9CF91969E
:100D00001C920895CF93DF93EC01EE85FF85E05CA4
:100D1000FF4F20813181E054F0402F5F3F4F2F7310
:100D20003070DF01AE5BBF4F8D919C9111972817FA
:100D30003907D1F3E05CFF4F80819181E054F040AE
:100D4000E80FF91F6083EE85FF85E05CFF4F31837C
:100D50002083EE89FF89208181E090E00F8C02C022
:100D6000880F991F0A94E2F7282B208381E089A33A
:100D7000EC89FD8980818064808381E090E0DF914F
:100D8000CF91089510925F0210925E0288EE93E078
:100D9000A0E0B0E08093600290936102A0936202B1
:100DA000B093630289EA91E090935D0280935C02C4
:100DB00084ED91E0909369028093680288E192E06B
:100DC00090936B0280936A0285EC90E090936D02A1
:100DD00080936C0284EC90E090936F0280936E029B
:100DE00080EC90E0909371028093700281EC90E02F
:100DF000909373028093720282EC90E0909375025C
:100E00008093740286EC90E0909377028093760250
:100E100084E08093780283E08093790287E0809376
:100E20007A0285E080937B0281E080937C020895C2
:100E3000CF93DF930E9439040E947001C3E4D5E090
:100E40000E94A0002097E1F30E944305F9CFCF92C2
:100E5000DF92EF92FF920F931F93CF93DF937C016A
:100E60006B018A01C0E0D0E00FC0D6016D916D0129
:100E7000D701ED91FC910190F081E02DC70109951A
:100E8000C80FD91F015010400115110571F7CE018F
:100E9000DF91CF911F910F91FF90EF90DF90CF9056
:100EA0000895EF92FF920F931F938C01DC01ED9157
:100EB000FC910190F081E02D6DE009957C01D80155
:100EC000ED91FC910190F081E02DC8016AE0099557
:100ED0009C012E0D3F1DC9011F910F91FF90EF90B6
:100EE0000895CF93DF93EC016115710519F420E0AB
:100EF00030E00FC0DB010D900020E9F71197A61B31
:100F0000B70BE881F9810280F381E02DAD010995ED
:100F10009C01C901DF91CF9108950E947107089546
:100F2000EF92FF920F931F937C010E9471078C0137
:100F3000C7010E945107080F191FC8011F910F9187
:100F4000FF90EF900895A1E21A2EAA1BBB1BFD0192
:100F50000DC0AA1FBB1FEE1FFF1FA217B307E40798
:100F6000F50720F0A21BB30BE40BF50B661F771FF0
:100F7000881F991F1A9469F76095709580959095D0
:100F80009B01AC01BD01CF010895EE0FFF1F05903D
:0A0F9000F491E02D0994F894FFCFCE
:100F9A00776F726B206C6F67203A20006D6F7669ED
:100FAA006E6720666F7277617264004D4F56452DE9
:100FBA00464F5257415244006D6F76696E672072F0
:100FCA0069676874005455524E2D52494748540077
:100FDA006D6F76696E672072657665727365005209
:100FEA00455645525345006D6F76696E67206C65AC
:100FFA006674005455524E2D4C454654006E6F206F
:10100A00636F6D6D616E64203A206E6F206D6F762E
:10101A00656D656E740048414C544544000A0009E8
:10102A0000080007000000000054022707000040E3
:10103A000014005400000000008206270718064921
:06104A00062906720600F3
:00000001FF
